{
  "contractName": "BikeChain",
  "abi": [
    {
      "inputs": [],
      "stateMutability": "nonpayable",
      "type": "constructor"
    },
    {
      "inputs": [
        {
          "internalType": "address",
          "name": "",
          "type": "address"
        }
      ],
      "name": "renters",
      "outputs": [
        {
          "internalType": "address payable",
          "name": "walletAddress",
          "type": "address"
        },
        {
          "internalType": "string",
          "name": "firstName",
          "type": "string"
        },
        {
          "internalType": "string",
          "name": "lastName",
          "type": "string"
        },
        {
          "internalType": "bool",
          "name": "canRent",
          "type": "bool"
        },
        {
          "internalType": "bool",
          "name": "active",
          "type": "bool"
        },
        {
          "internalType": "uint256",
          "name": "balance",
          "type": "uint256"
        },
        {
          "internalType": "uint256",
          "name": "due",
          "type": "uint256"
        },
        {
          "internalType": "uint256",
          "name": "start",
          "type": "uint256"
        },
        {
          "internalType": "uint256",
          "name": "end",
          "type": "uint256"
        }
      ],
      "stateMutability": "view",
      "type": "function",
      "constant": true
    },
    {
      "inputs": [
        {
          "internalType": "address payable",
          "name": "walletAddress",
          "type": "address"
        },
        {
          "internalType": "string",
          "name": "firstName",
          "type": "string"
        },
        {
          "internalType": "string",
          "name": "lastName",
          "type": "string"
        },
        {
          "internalType": "bool",
          "name": "canRent",
          "type": "bool"
        },
        {
          "internalType": "bool",
          "name": "active",
          "type": "bool"
        },
        {
          "internalType": "uint256",
          "name": "balance",
          "type": "uint256"
        },
        {
          "internalType": "uint256",
          "name": "due",
          "type": "uint256"
        },
        {
          "internalType": "uint256",
          "name": "start",
          "type": "uint256"
        },
        {
          "internalType": "uint256",
          "name": "end",
          "type": "uint256"
        }
      ],
      "name": "addRenters",
      "outputs": [],
      "stateMutability": "nonpayable",
      "type": "function"
    },
    {
      "inputs": [
        {
          "internalType": "address",
          "name": "walletAddress",
          "type": "address"
        }
      ],
      "name": "checkOut",
      "outputs": [],
      "stateMutability": "nonpayable",
      "type": "function"
    },
    {
      "inputs": [
        {
          "internalType": "address",
          "name": "walletAddress",
          "type": "address"
        }
      ],
      "name": "checkIn",
      "outputs": [],
      "stateMutability": "nonpayable",
      "type": "function"
    },
    {
      "inputs": [
        {
          "internalType": "address",
          "name": "walletAddress",
          "type": "address"
        }
      ],
      "name": "getTotalDuration",
      "outputs": [
        {
          "internalType": "uint256",
          "name": "",
          "type": "uint256"
        }
      ],
      "stateMutability": "view",
      "type": "function",
      "constant": true
    },
    {
      "inputs": [],
      "name": "balanceOf",
      "outputs": [
        {
          "internalType": "uint256",
          "name": "",
          "type": "uint256"
        }
      ],
      "stateMutability": "view",
      "type": "function",
      "constant": true
    },
    {
      "inputs": [
        {
          "internalType": "address",
          "name": "walletAddress",
          "type": "address"
        }
      ],
      "name": "balanceOfRenter",
      "outputs": [
        {
          "internalType": "uint256",
          "name": "",
          "type": "uint256"
        }
      ],
      "stateMutability": "view",
      "type": "function",
      "constant": true
    },
    {
      "inputs": [
        {
          "internalType": "address",
          "name": "walletAddress",
          "type": "address"
        }
      ],
      "name": "canRentBike",
      "outputs": [
        {
          "internalType": "bool",
          "name": "",
          "type": "bool"
        }
      ],
      "stateMutability": "view",
      "type": "function",
      "constant": true
    },
    {
      "inputs": [
        {
          "internalType": "address",
          "name": "walletAddress",
          "type": "address"
        }
      ],
      "name": "diposit",
      "outputs": [],
      "stateMutability": "payable",
      "type": "function",
      "payable": true
    },
    {
      "inputs": [
        {
          "internalType": "address",
          "name": "walletAddress",
          "type": "address"
        }
      ],
      "name": "makePayment",
      "outputs": [],
      "stateMutability": "payable",
      "type": "function",
      "payable": true
    },
    {
      "inputs": [
        {
          "internalType": "address",
          "name": "walletAddress",
          "type": "address"
        }
      ],
      "name": "getDue",
      "outputs": [
        {
          "internalType": "uint256",
          "name": "",
          "type": "uint256"
        }
      ],
      "stateMutability": "view",
      "type": "function",
      "constant": true
    },
    {
      "inputs": [
        {
          "internalType": "address",
          "name": "walletAddress",
          "type": "address"
        }
      ],
      "name": "getRenter",
      "outputs": [
        {
          "internalType": "string",
          "name": "firstName",
          "type": "string"
        },
        {
          "internalType": "string",
          "name": "lastName",
          "type": "string"
        },
        {
          "internalType": "bool",
          "name": "canRent",
          "type": "bool"
        },
        {
          "internalType": "bool",
          "name": "active",
          "type": "bool"
        }
      ],
      "stateMutability": "view",
      "type": "function",
      "constant": true
    },
    {
      "inputs": [
        {
          "internalType": "address",
          "name": "walletAddress",
          "type": "address"
        }
      ],
      "name": "renterExists",
      "outputs": [
        {
          "internalType": "bool",
          "name": "",
          "type": "bool"
        }
      ],
      "stateMutability": "view",
      "type": "function",
      "constant": true
    }
  ],
  "bytecode": "0x608060405234801561001057600080fd5b50336000806101000a81548173ffffffffffffffffffffffffffffffffffffffff021916908373ffffffffffffffffffffffffffffffffffffffff160217905550611d4b806100606000396000f3fe6080604052600436106100c25760003560e01c806382fc925d1161007f578063ad22e97711610059578063ad22e9771461028f578063c6d2a846146102b8578063d9a59e33146102f5578063f9d8241c1461031e576100c2565b806382fc925d1461020d5780638d23caa014610229578063aad1b61714610252576100c2565b80630b88adbe146100c7578063300be4fc1461010457806341ba6e8914610120578063644a13701461015d5780636a4b27f4146101a2578063722713f7146101e2575b600080fd5b3480156100d357600080fd5b506100ee60048036038101906100e991906113ba565b61035b565b6040516100fb9190611402565b60405180910390f35b61011e600480360381019061011991906113ba565b6103b4565b005b34801561012c57600080fd5b50610147600480360381019061014291906113ba565b61064b565b6040516101549190611436565b60405180910390f35b34801561016957600080fd5b50610184600480360381019061017f91906113ba565b61079b565b6040516101999998979695949392919061150b565b60405180910390f35b3480156101ae57600080fd5b506101c960048036038101906101c491906113ba565b610933565b6040516101d994939291906115a6565b60405180910390f35b3480156101ee57600080fd5b506101f7610b7e565b6040516102049190611436565b60405180910390f35b610227600480360381019061022291906113ba565b610b86565b005b34801561023557600080fd5b50610250600480360381019061024b91906113ba565b610be2565b005b34801561025e57600080fd5b50610279600480360381019061027491906113ba565b610dfc565b6040516102869190611436565b60405180910390f35b34801561029b57600080fd5b506102b660048036038101906102b191906117b2565b610e48565b005b3480156102c457600080fd5b506102df60048036038101906102da91906113ba565b610fd9565b6040516102ec9190611436565b60405180910390f35b34801561030157600080fd5b5061031c600480360381019061031791906113ba565b611025565b005b34801561032a57600080fd5b50610345600480360381019061034091906113ba565b611169565b6040516103529190611402565b60405180910390f35b6000600160008373ffffffffffffffffffffffffffffffffffffffff1673ffffffffffffffffffffffffffffffffffffffff16815260200190815260200160002060030160009054906101000a900460ff169050919050565b6000600160008373ffffffffffffffffffffffffffffffffffffffff1673ffffffffffffffffffffffffffffffffffffffff1681526020019081526020016000206005015411610439576040517f08c379a000000000000000000000000000000000000000000000000000000000815260040161043090611926565b60405180910390fd5b34600160008373ffffffffffffffffffffffffffffffffffffffff1673ffffffffffffffffffffffffffffffffffffffff16815260200190815260200160002060040154116104bd576040517f08c379a00000000000000000000000000000000000000000000000000000000081526004016104b4906119de565b60405180910390fd5b34600160008373ffffffffffffffffffffffffffffffffffffffff1673ffffffffffffffffffffffffffffffffffffffff168152602001908152602001600020600401600082825461050f9190611a2d565b9250508190555060018060008373ffffffffffffffffffffffffffffffffffffffff1673ffffffffffffffffffffffffffffffffffffffff16815260200190815260200160002060030160006101000a81548160ff0219169083151502179055506000600160008373ffffffffffffffffffffffffffffffffffffffff1673ffffffffffffffffffffffffffffffffffffffff168152602001908152602001600020600501819055506000600160008373ffffffffffffffffffffffffffffffffffffffff1673ffffffffffffffffffffffffffffffffffffffff168152602001908152602001600020600601819055506000600160008373ffffffffffffffffffffffffffffffffffffffff1673ffffffffffffffffffffffffffffffffffffffff1681526020019081526020016000206007018190555050565b600080600160008473ffffffffffffffffffffffffffffffffffffffff1673ffffffffffffffffffffffffffffffffffffffff1681526020019081526020016000206006015414806106df57506000600160008473ffffffffffffffffffffffffffffffffffffffff1673ffffffffffffffffffffffffffffffffffffffff16815260200190815260200160002060070154145b156106ed5760009050610796565b600061077d600160008573ffffffffffffffffffffffffffffffffffffffff1673ffffffffffffffffffffffffffffffffffffffff16815260200190815260200160002060060154600160008673ffffffffffffffffffffffffffffffffffffffff1673ffffffffffffffffffffffffffffffffffffffff16815260200190815260200160002060070154611213565b90506000603c8261078e9190611a90565b905080925050505b919050565b60016020528060005260406000206000915090508060000160009054906101000a900473ffffffffffffffffffffffffffffffffffffffff16908060010180546107e490611af0565b80601f016020809104026020016040519081016040528092919081815260200182805461081090611af0565b801561085d5780601f106108325761010080835404028352916020019161085d565b820191906000526020600020905b81548152906001019060200180831161084057829003601f168201915b50505050509080600201805461087290611af0565b80601f016020809104026020016040519081016040528092919081815260200182805461089e90611af0565b80156108eb5780601f106108c0576101008083540402835291602001916108eb565b820191906000526020600020905b8154815290600101906020018083116108ce57829003601f168201915b5050505050908060030160009054906101000a900460ff16908060030160019054906101000a900460ff16908060040154908060050154908060060154908060070154905089565b606080600080600160008673ffffffffffffffffffffffffffffffffffffffff1673ffffffffffffffffffffffffffffffffffffffff168152602001908152602001600020600101805461098690611af0565b80601f01602080910402602001604051908101604052809291908181526020018280546109b290611af0565b80156109ff5780601f106109d4576101008083540402835291602001916109ff565b820191906000526020600020905b8154815290600101906020018083116109e257829003601f168201915b50505050509350600160008673ffffffffffffffffffffffffffffffffffffffff1673ffffffffffffffffffffffffffffffffffffffff1681526020019081526020016000206002018054610a5390611af0565b80601f0160208091040260200160405190810160405280929190818152602001828054610a7f90611af0565b8015610acc5780601f10610aa157610100808354040283529160200191610acc565b820191906000526020600020905b815481529060010190602001808311610aaf57829003601f168201915b50505050509250600160008673ffffffffffffffffffffffffffffffffffffffff1673ffffffffffffffffffffffffffffffffffffffff16815260200190815260200160002060030160009054906101000a900460ff169150600160008673ffffffffffffffffffffffffffffffffffffffff1673ffffffffffffffffffffffffffffffffffffffff16815260200190815260200160002060030160019054906101000a900460ff1690509193509193565b600047905090565b34600160008373ffffffffffffffffffffffffffffffffffffffff1673ffffffffffffffffffffffffffffffffffffffff1681526020019081526020016000206004016000828254610bd89190611b21565b9250508190555050565b6000600160008373ffffffffffffffffffffffffffffffffffffffff1673ffffffffffffffffffffffffffffffffffffffff1681526020019081526020016000206005015414610c67576040517f08c379a0000000000000000000000000000000000000000000000000000000008152600401610c5e90611bc3565b60405180910390fd5b60011515600160008373ffffffffffffffffffffffffffffffffffffffff1673ffffffffffffffffffffffffffffffffffffffff16815260200190815260200160002060030160009054906101000a900460ff16151514610cfd576040517f08c379a0000000000000000000000000000000000000000000000000000000008152600401610cf490611c2f565b60405180910390fd5b60018060008373ffffffffffffffffffffffffffffffffffffffff1673ffffffffffffffffffffffffffffffffffffffff16815260200190815260200160002060030160016101000a81548160ff02191690831515021790555042600160008373ffffffffffffffffffffffffffffffffffffffff1673ffffffffffffffffffffffffffffffffffffffff168152602001908152602001600020600601819055506000600160008373ffffffffffffffffffffffffffffffffffffffff1673ffffffffffffffffffffffffffffffffffffffff16815260200190815260200160002060030160006101000a81548160ff02191690831515021790555050565b6000600160008373ffffffffffffffffffffffffffffffffffffffff1673ffffffffffffffffffffffffffffffffffffffff168152602001908152602001600020600401549050919050565b6040518061012001604052808a73ffffffffffffffffffffffffffffffffffffffff1681526020018981526020018881526020018715158152602001861515815260200185815260200184815260200183815260200182815250600160008b73ffffffffffffffffffffffffffffffffffffffff1673ffffffffffffffffffffffffffffffffffffffff16815260200190815260200160002060008201518160000160006101000a81548173ffffffffffffffffffffffffffffffffffffffff021916908373ffffffffffffffffffffffffffffffffffffffff1602179055506020820151816001019080519060200190610f449291906112a5565b506040820151816002019080519060200190610f619291906112a5565b5060608201518160030160006101000a81548160ff02191690831515021790555060808201518160030160016101000a81548160ff02191690831515021790555060a0820151816004015560c0820151816005015560e082015181600601556101008201518160070155905050505050505050505050565b6000600160008373ffffffffffffffffffffffffffffffffffffffff1673ffffffffffffffffffffffffffffffffffffffff168152602001908152602001600020600501549050919050565b60011515600160008373ffffffffffffffffffffffffffffffffffffffff1673ffffffffffffffffffffffffffffffffffffffff16815260200190815260200160002060030160019054906101000a900460ff161515146110bb576040517f08c379a00000000000000000000000000000000000000000000000000000000081526004016110b290611c9b565b60405180910390fd5b6000600160008373ffffffffffffffffffffffffffffffffffffffff1673ffffffffffffffffffffffffffffffffffffffff16815260200190815260200160002060030160016101000a81548160ff02191690831515021790555042600160008373ffffffffffffffffffffffffffffffffffffffff1673ffffffffffffffffffffffffffffffffffffffff1681526020019081526020016000206007018190555061116681611229565b50565b60008073ffffffffffffffffffffffffffffffffffffffff16600160008473ffffffffffffffffffffffffffffffffffffffff1673ffffffffffffffffffffffffffffffffffffffff16815260200190815260200160002060000160009054906101000a900473ffffffffffffffffffffffffffffffffffffffff1673ffffffffffffffffffffffffffffffffffffffff1614611209576001905061120e565b600090505b919050565b600082826112219190611a2d565b905092915050565b60006112348261064b565b905060006005826112459190611a90565b90506611c37937e080008161125a9190611cbb565b600160008573ffffffffffffffffffffffffffffffffffffffff1673ffffffffffffffffffffffffffffffffffffffff16815260200190815260200160002060050181905550505050565b8280546112b190611af0565b90600052602060002090601f0160209004810192826112d3576000855561131a565b82601f106112ec57805160ff191683800117855561131a565b8280016001018555821561131a579182015b828111156113195782518255916020019190600101906112fe565b5b509050611327919061132b565b5090565b5b8082111561134457600081600090555060010161132c565b5090565b6000604051905090565b600080fd5b600080fd5b600073ffffffffffffffffffffffffffffffffffffffff82169050919050565b60006113878261135c565b9050919050565b6113978161137c565b81146113a257600080fd5b50565b6000813590506113b48161138e565b92915050565b6000602082840312156113d0576113cf611352565b5b60006113de848285016113a5565b91505092915050565b60008115159050919050565b6113fc816113e7565b82525050565b600060208201905061141760008301846113f3565b92915050565b6000819050919050565b6114308161141d565b82525050565b600060208201905061144b6000830184611427565b92915050565b600061145c8261135c565b9050919050565b61146c81611451565b82525050565b600081519050919050565b600082825260208201905092915050565b60005b838110156114ac578082015181840152602081019050611491565b838111156114bb576000848401525b50505050565b6000601f19601f8301169050919050565b60006114dd82611472565b6114e7818561147d565b93506114f781856020860161148e565b611500816114c1565b840191505092915050565b600061012082019050611521600083018c611463565b8181036020830152611533818b6114d2565b90508181036040830152611547818a6114d2565b905061155660608301896113f3565b61156360808301886113f3565b61157060a0830187611427565b61157d60c0830186611427565b61158a60e0830185611427565b611598610100830184611427565b9a9950505050505050505050565b600060808201905081810360008301526115c081876114d2565b905081810360208301526115d481866114d2565b90506115e360408301856113f3565b6115f060608301846113f3565b95945050505050565b61160281611451565b811461160d57600080fd5b50565b60008135905061161f816115f9565b92915050565b600080fd5b600080fd5b7f4e487b7100000000000000000000000000000000000000000000000000000000600052604160045260246000fd5b611667826114c1565b810181811067ffffffffffffffff821117156116865761168561162f565b5b80604052505050565b6000611699611348565b90506116a5828261165e565b919050565b600067ffffffffffffffff8211156116c5576116c461162f565b5b6116ce826114c1565b9050602081019050919050565b82818337600083830152505050565b60006116fd6116f8846116aa565b61168f565b9050828152602081018484840111156117195761171861162a565b5b6117248482856116db565b509392505050565b600082601f83011261174157611740611625565b5b81356117518482602086016116ea565b91505092915050565b611763816113e7565b811461176e57600080fd5b50565b6000813590506117808161175a565b92915050565b61178f8161141d565b811461179a57600080fd5b50565b6000813590506117ac81611786565b92915050565b60008060008060008060008060006101208a8c0312156117d5576117d4611352565b5b60006117e38c828d01611610565b99505060208a013567ffffffffffffffff81111561180457611803611357565b5b6118108c828d0161172c565b98505060408a013567ffffffffffffffff81111561183157611830611357565b5b61183d8c828d0161172c565b975050606061184e8c828d01611771565b965050608061185f8c828d01611771565b95505060a06118708c828d0161179d565b94505060c06118818c828d0161179d565b93505060e06118928c828d0161179d565b9250506101006118a48c828d0161179d565b9150509295985092959850929598565b7f596f7520646f206e6f74206861766520616e797468696e67206475652061742060008201527f746869732074696d650000000000000000000000000000000000000000000000602082015250565b600061191060298361147d565b915061191b826118b4565b604082019050919050565b6000602082019050818103600083015261193f81611903565b9050919050565b7f596f7520646f206e6f74206861766520656e6f7567682066756e647320746f2060008201527f636f766572207061796d656e742e20506c65617365206d616b6520612064697060208201527f6f73697400000000000000000000000000000000000000000000000000000000604082015250565b60006119c860448361147d565b91506119d382611946565b606082019050919050565b600060208201905081810360008301526119f7816119bb565b9050919050565b7f4e487b7100000000000000000000000000000000000000000000000000000000600052601160045260246000fd5b6000611a388261141d565b9150611a438361141d565b925082821015611a5657611a556119fe565b5b828203905092915050565b7f4e487b7100000000000000000000000000000000000000000000000000000000600052601260045260246000fd5b6000611a9b8261141d565b9150611aa68361141d565b925082611ab657611ab5611a61565b5b828204905092915050565b7f4e487b7100000000000000000000000000000000000000000000000000000000600052602260045260246000fd5b60006002820490506001821680611b0857607f821691505b602082108103611b1b57611b1a611ac1565b5b50919050565b6000611b2c8261141d565b9150611b378361141d565b9250827fffffffffffffffffffffffffffffffffffffffffffffffffffffffffffffffff03821115611b6c57611b6b6119fe565b5b828201905092915050565b7f596f75206861766520612070656e64696e672062616c616e6365000000000000600082015250565b6000611bad601a8361147d565b9150611bb882611b77565b602082019050919050565b60006020820190508181036000830152611bdc81611ba0565b9050919050565b7f596f752063616e206e6f742072656e7420617420746869732074696d65000000600082015250565b6000611c19601d8361147d565b9150611c2482611be3565b602082019050919050565b60006020820190508181036000830152611c4881611c0c565b9050919050565b7f506c6561736520436865636b6f757420612062696b6520666972737400000000600082015250565b6000611c85601c8361147d565b9150611c9082611c4f565b602082019050919050565b60006020820190508181036000830152611cb481611c78565b9050919050565b6000611cc68261141d565b9150611cd18361141d565b9250817fffffffffffffffffffffffffffffffffffffffffffffffffffffffffffffffff0483118215151615611d0a57611d096119fe565b5b82820290509291505056fea2646970667358221220483e9eeea40ad8d81cf96f397dd737f84a7149b6c55d6baa129eef3885a8157a64736f6c634300080d0033",
  "immutableReferences": {},
  "source": "// SPDX-License-Identifier: MIT\n\npragma solidity ^0.8.0;\n\ncontract BikeChain {\n    address owner;\n\n    constructor() {\n        owner = msg.sender;\n    }\n    //Add yourself as Renter\n    struct Renter {\n\n        address payable walletAddress;\n        string firstName;\n        string lastName;\n        bool canRent;\n        bool active;\n        uint balance;\n        uint due;\n        uint start;\n        uint end;\n    }\n\n    mapping(address => Renter) public renters;\n\n    function addRenters(address payable walletAddress, string memory firstName, string memory lastName, bool canRent, bool active, uint balance,  uint due, uint start,uint end ) public {\n        renters[walletAddress]= Renter(walletAddress, firstName, lastName, canRent, active, balance, due, start, end);\n    }\n\n    // checkout bike\n    function checkOut(address walletAddress) public {\n        require (renters[walletAddress].due==0,\"You have a pending balance\");\n        require (renters[walletAddress].canRent==true,\"You can not rent at this time\");\n        renters[walletAddress].active= true;\n        renters[walletAddress].start= block.timestamp;\n        renters[walletAddress].canRent= false;\n    }\n\n    //check in  bike\n\n    function checkIn(address walletAddress) public {\n        require (renters[walletAddress].active==true,\"Please Checkout a bike first\");\n\n        renters[walletAddress].active= false;\n        renters[walletAddress].end= block.timestamp;\n        //TODO: set the amount\n        setDue(walletAddress);\n    }\n\n    function renterTimespan( uint start, uint end) internal pure returns(uint) {\n        return end-start;\n    }\n    //get total Duration of bike use\n    function getTotalDuration(address walletAddress) public view  returns(uint) {\n       if(renters[walletAddress].start==0 || renters[walletAddress].end==0) {\n        return 0;\n       }\n       else {\n        uint timespan = renterTimespan(renters[walletAddress].start, renters[walletAddress].end);\n        uint timespanInMinutes = timespan /60;\n        return timespanInMinutes;\n       }\n\n        \n       \n\n    }\n\n    //Get Contract Balance\n\n    function balanceOf() view public returns(uint) {\n        return address(this).balance;\n    }\n\n    //get riders balance\n    function balanceOfRenter(address walletAddress) public view returns(uint) {\n        return renters[walletAddress].balance;\n    }\n\n    //set due amount\n    function setDue(address walletAddress) internal {\n        uint timespanMinutes = getTotalDuration(walletAddress);\n        uint fiveMinuteIncrements = timespanMinutes/5;\n        renters[walletAddress].due = fiveMinuteIncrements * 5000000000000000;\n    }\n\n\n\n    function canRentBike(address walletAddress) public view returns(bool) {\n        return renters[walletAddress].canRent;\n    }\n\n    //Deposite\n\n    function diposit(address walletAddress) payable public {\n        renters[walletAddress].balance+=msg.value;\n    }\n\n    //Make Payment\n    function makePayment(address walletAddress) payable public {\n        require (renters[walletAddress].due> 0,\"You do not have anything due at this time\");\n        require (renters[walletAddress].balance> msg.value,\"You do not have enough funds to cover payment. Please make a diposit\");\n\n\n        renters[walletAddress].balance-= msg.value;\n        renters[walletAddress].canRent= true;\n        renters[walletAddress].due= 0;\n        renters[walletAddress].start= 0;\n        renters[walletAddress].end= 0;\n    }\n\n    function getDue(address walletAddress) public view returns(uint) {\n        return renters[walletAddress].due;\n    }\n\n    function getRenter(address walletAddress) public view returns ( string memory firstName, string memory lastName, bool canRent, bool active) {\n        firstName= renters[walletAddress].firstName;\n        lastName= renters[walletAddress].lastName;\n        canRent= renters[walletAddress].canRent;\n        active= renters[walletAddress].active;\n    }\n\n    function renterExists(address walletAddress) public view returns(bool) {\n        if(renters[walletAddress].walletAddress!= address(0)) {\n            return true;\n        }\n        else {\n\t\t\t\n            return false;\n        }\n    }\n\n\n\n\n}",
  "sourcePath": "/home/common/Desktop/Projects/bike-chain/truffle-contract/contracts/BikeChain.sol",
  "compiler": {
    "name": "solc",
    "version": "0.8.13+commit.abaa5c0e.Emscripten.clang"
  },
  "schemaVersion": "3.4.16",
  "updatedAt": "2024-02-02T04:59:14.302Z",
  "networkType": "ethereum",
  "devdoc": {
    "kind": "dev",
    "methods": {},
    "version": 1
  },
  "userdoc": {
    "kind": "user",
    "methods": {},
    "version": 1
  }
}